:100000000C9462000C94F00B0C948A000C948A00FF
:100010000C948A000C948A000C948A000C948A0038
:100020000C948A000C948A000C948A000C948A0028
:100030000C948A000C94850C0C948A000C948A0011
:100040000C94150B0C948A000C94D2030C94AC0302
:100050000C948A000C948A000C948A000C948A00F8
:100060000C948A000C948A00000000080002010031
:100070000003040700000000000000000000000072
:1000800023002600290000000000240027002A0089
:1000900000000000250028002B00040404040404D0
:1000A0000404020202020202030303030303010227
:1000B00004081020408001020408102001020408F6
:1000C00010209C0C11241FBECFEFD8E0DEBFCDBFA7
:1000D00012E0A0E0B1E0EEE3F5E202C005900D927F
:1000E000AC37B107D9F723E0ACE7B2E001C01D920D
:1000F000AA3CB207E1F710E0C2E6D0E004C02197C5
:10010000FE010E945610C136D107C9F70E948D0D1D
:100110000C949D120C940000CF92DF92EF92FF920C
:100120000F931F93CF93DF936C017A018B01C0E093
:10013000D0E0CE15DF0589F0D8016D918D01D60193
:10014000ED91FC910190F081E02DC6010995892B7C
:1001500011F47E0102C02196ECCFC701DF91CF914F
:100160001F910F91FF90EF90DF90CF9008958FE750
:1001700092E00E94260421E0892B09F420E0822FDE
:100180000895CF93DF93EC0161E08BE00E9442057C
:10019000209711F460E004C0CF3FD10531F461E055
:1001A0008BE0DF91CF910C94FC04E3E7F0E0E49165
:1001B000E330F9F048F4E130B9F0E230A1F584B56C
:1001C000806284BDC8BD34C0E730E9F0E83019F181
:1001D000E43049F580918000806280938000D09364
:1001E0008B00C0938A0024C084B5806884BDC7BDDD
:1001F0001FC080918000806880938000D093890028
:10020000C093880015C08091B00080688093B000D2
:10021000C093B3000DC08091B00080628093B000A5
:10022000C093B40005C0C038D1050CF0B8CFB2CF30
:10023000DF91CF910895EF92FF920F931F93CF9389
:10024000DF93EC01623018F08F8588608F876B8BAD
:100250001C8A80E48D8B80E18E8B80E58F8B61E042
:100260008C810E9442058D818F3F19F061E00E94D0
:10027000420561E08E810E9442057E0187E0E80E22
:10028000F11C00E010E08F8584FD03C084E090E065
:1002900002C088E090E0081719074CF461E0F7010C
:1002A00081917F010E9442050F5F1F4FECCF8BE3CE
:1002B0009DE00197F1F760E08C810E94FC0460E012
:1002C0008E810E94FC048D818F3F19F060E00E94B6
:1002D000FC046F8564FD1DC063E0CE010E945F0BCE
:1002E0000BE416E4C8010197F1F763E0CE010E9428
:1002F0005F0BC8010197F1F763E0CE010E945F0B2D
:1003000083E592E00197F1F762E0CE010E945F0B76
:1003100016C06062CE010E94E50B8BE496E4019763
:10032000F1F76F856062CE010E94E50B83E592E0F4
:100330000197F1F76F856062CE010E94E50B6F8532
:100340006062CE010E94E50B84E0888B6CE0CE01F8
:100350000E94E50BCE010E94E80B82E0898B66E0EB
:10036000CE01DF91CF911F910F91FF90EF900C94F0
:10037000E50B0E949812EF92FF920F931F93CF9379
:10038000DF93EC0181E0888F9B8D8C8D981305C0E5
:10039000E889F989808185FD24C0F62E0B8D10E057
:1003A0000F5F1F4F0F731127E02E8C8DE8120CC0CA
:1003B0000FB607FCFACFE889F989808185FFF5CF70
:1003C000CE010E94DB04F1CF8B8DFE01E80FF11D01
:1003D000E35AFF4FF0820B8FEA89FB8980818062AC
:1003E00007C0EE89FF896083E889F989808180648C
:1003F000808381E090E0DF91CF911F910F91FF907A
:10040000EF900895CF93DF93EC01888D8823C9F096
:10041000EA89FB89808185FD05C0A889B9898C910D
:1004200086FD0FC00FB607FCF5CF808185FFF2CFA8
:10043000A889B9898C9185FFEDCFCE010E94DB049C
:10044000E7CFDF91CF910895643008F063E0909199
:100450002F03691710F06FEF690FE62FF0E0E45EED
:10046000FC4F9489682F690F60688CE193E00C94CD
:10047000E50BDC01ED91FC910190F081E02D0994F8
:100480006115710579F0FB0101900020E9F73197C2
:10049000AF01461B570BDC01ED91FC910280F3810B
:1004A000E02D099480E090E00895CF93DF93BC01A4
:1004B0008FE792E00E944002EC016AE171E08FE771
:1004C00092E00E9440028C0F9D1FDF91CF91089512
:1004D0004F925F926F927F92EF92FF920F931F93D2
:1004E000CF93DF93CDB7DEB7A1970FB6F894DEBFF9
:1004F0000FBECDBF7C01FA01CB0119A2223008F456
:100500002AE08E010F5D1F4F422E512C612C712C61
:10051000BF01A30192010E943410F901CA010150E8
:1005200011096A3014F4605D01C0695CD8016C93F4
:10053000232B242B252B61F7B801C7010E94400211
:10054000A1960FB6F894DEBF0FBECDBFDF91CF915D
:100550001F910F91FF90EF907F906F905F904F9061
:1005600008954F925F926F927F928F929F92AF9277
:10057000BF92CF92DF92EF92FF92CF93DF93EC0185
:100580006A017B01B22E9A01AB01C701B6010E943C
:100590009312882319F06DE171E027C0260137011D
:1005A000E89477F82FEF3FEF4FE75FE7C301B20121
:1005B0000E94931281110DC02FEF3FEF4FE75FE7CD
:1005C000C301B2010E94C91018161CF461E271E067
:1005D0000CC02FEF3FEF4FE75FE4C701B6010E9469
:1005E000211218169CF465E271E0CE01DF91CF91E3
:1005F000FF90EF90DF90CF90BF90AF909F908F9043
:100600007F906F905F904F900C9440022FEF3FEFE0
:100610004FE75FECC701B6010E94C91087FDE3CF29
:1006200020E030E0A901C701B6010E94C91087FF90
:100630000AC06DE2CE010E9439024C01F7FAF09433
:10064000F7F8F09402C0812C912CA12C60E070E0AE
:1006500080E09FE3AB1441F020E030E040E251E461
:100660000E94CE10A394F6CF9B01AC01C701B60146
:100670000E945D102B013C010E9440116B017C0126
:100680000E946F119B01AC01C301B2010E945C107A
:100690002B013C012AE0B701A601CE010E946802AD
:1006A0007C01E80CF91CBB2031F06EE2CE010E9407
:1006B0003902E80EF91EDB2CDD2029F120E030E0C4
:1006C00040E251E4C301B2010E9426122B013C0119
:1006D0000E9440114B01A12CB12C2AE0B501A401CC
:1006E000CE010E946802E80EF91EC501B4010E9405
:1006F0006F119B01AC01C301B2010E945C102B0180
:100700003C01DA94D9CFC701DF91CF91FF90EF90F0
:10071000DF90CF90BF90AF909F908F907F906F9021
:100720005F904F900895CF93DF93AB01BC0122E01F
:100730008FE792E00E94B102EC016AE171E08FE77D
:1007400092E00E9440028C0F9D1FDF91CF9108958F
:100750000C94B1020C9440021F920F920FB60F92AC
:1007600011242F933F934F935F936F937F938F93B6
:100770009F93AF93BF93EF93FF938FE792E00E9415
:10078000DB04FF91EF91BF91AF919F918F917F918A
:100790006F915F914F913F912F910F900FBE0F90EE
:1007A0001F9018951F920F920FB60F9211242F933E
:1007B0008F939F93EF93FF93E0918F02F0919002BC
:1007C0008081E0919502F091960282FD12C09081A5
:1007D000809198028F5F8F7320919902821751F058
:1007E000E0919802F0E0E158FD4F958F80939802D8
:1007F00001C08081FF91EF919F918F912F910F9078
:100800000FBE0F901F901895FC01918D828D981747
:1008100061F0828DDF01A80FB11D5D968C91928DE4
:100820009F5F9F73928F90E008958FEF9FEF0895E1
:10083000FC01918D828D981731F0828DE80FF11DAA
:10084000858D90E008958FEF9FEF0895FC01918DC5
:10085000228D892F90E0805C9F4F821B91098F73BE
:100860009927089580E090E0892B29F00E94B70035
:1008700081110C9400000895833081F028F48130B8
:1008800099F08230A1F008958730A9F08830B9F04E
:100890008430D1F4809180008F7D03C080918000EE
:1008A0008F7780938000089584B58F7702C084B5D8
:1008B0008F7D84BD08958091B0008F7703C08091B3
:1008C000B0008F7D8093B0000895CF93DF9300D068
:1008D00000D0CDB7DEB7809190038823B1F14FB738
:1008E000F8948091840090918500A0E0B0E0898325
:1008F0009A83AB83BC8320918D0330918E03B09B90
:1009000006C08F3F9F47A105B10508F44AC03C834C
:100910002B834FBF4091890350918A0360918B03D1
:1009200070918C0389819A81AB81BC81841B950B6A
:10093000A60BB70B81309846A105B105A8F1F89434
:1009400081E08093010178942FC01092AD03109242
:10095000AE031092AF031092B0031092B103109245
:10096000B2031092B3031092B4031092A503109235
:10097000A6031092A7031092A80310928F0381E0A0
:10098000809390031092B503E09A80916900826091
:100990008093690080916900816080936900E89A82
:1009A00003C02F5F3F4FB3CF0F900F900F900F906A
:1009B000DF91CF910895FC01848DDF01A80FB11D57
:1009C000A35ABF4F2C91848D90E001968F73992785
:1009D000848FA689B7892C93A089B1898C91806472
:1009E0008C93938D848D981306C00288F389E02D33
:1009F00080818F7D808308951F93CF93DF93282F6D
:100A000030E0F901E859FF4F8491F901E255FF4FB9
:100A1000D491F901E656FF4FC491CC23C9F0162FAB
:100A200081110E943C04EC2FF0E0EE0FFF1FE05715
:100A3000FF4FA591B4918FB7F894111105C09C9107
:100A4000ED2FE095E92302C0EC91ED2BEC938FBFE5
:100A5000DF91CF911F910895CF93DF93EC0160E078
:100A60008E810E94FC0461E08E810E94FC0460E0A3
:100A70008E810E94FC048BE891E00197F1F7DF91F1
:100A8000CF910895CF93DF9390E0FC01E255FF4FA3
:100A90002491FC01E656FF4F8491882361F190E098
:100AA000880F991FFC01EA57FF4FC591D491FC01B3
:100AB000E057FF4FA591B491611109C09FB7F89419
:100AC0008881209582238883EC912E230BC062308D
:100AD00061F49FB7F8943881822F809583238883AF
:100AE000EC912E2B2C939FBF06C08FB7F894E88112
:100AF0002E2B28838FBFDF91CF9108958E3008F081
:100B00008E508770806480937C0080917A0080642E
:100B100080937A0080917A0086FDFCCF80917800E6
:100B20002091790090E0922B08954F925F926F92FE
:100B30007F928F929F92AF92BF92CF92DF92EF926D
:100B4000FF920F931F93CF93DF93CDB7DEB72C9710
:100B50000FB6F894DEBF0FBECDBF9091010180911A
:100B60007C02992309F492C181115AC08FE00E943E
:100B70007E058C019093C0038093BF03E7E7F0E00C
:100B80008491EDEBF0E0E490E9EAF0E0F490FF20EE
:100B900079F081110E943C04EF2DF0E0EE0FFF1F71
:100BA000E458FF4FA591B491EC91EE2181E009F456
:100BB00080E081708093BE0385E0809FB001819FBB
:100BC000700D1124072E000C880B990B0E947111D7
:100BD00020E030EC4FE754E40E94CE106093BA035B
:100BE0007093BB038093BC039093BD038EE0809F02
:100BF000B001819F700D1124072E000C880B990BFA
:100C00000E94711120E030EC4FE754E40E94CE10B6
:100C10006093B6037093B7038093B8039093B903BE
:100C200080917D0290917E028130910509F46EC021
:100C30008230910509F487C0892B09F0C2C060E0B9
:100C400081E00E94240269E271E08CE193E00E945D
:100C5000AA038091BF039091C003883E934034F46F
:100C600064E671E08CE193E00E94AA038091BF03E7
:100C70009091C0038436910534F464E671E08CE110
:100C800093E00E94AA038091BF039091C0030A974A
:100C900034F464E671E08CE193E00E94AA03C09012
:100CA000BF03D090C0030D2C000CEE08FF08F7FE28
:100CB0000EC06DE28CE193E00E9439024427552773
:100CC000BA014C195D096E097F092AE003C02AE0C8
:100CD000B701A6018CE193E00E94680261E081E027
:100CE0000E94240265E371E08CE193E00E94AA0374
:100CF00061E08CE00E9424028091BE03882319F0F9
:100D000061E471E05AC066E471E057C060E081E0E0
:100D10000E9424026BE471E08CE193E00E94AA033C
:100D200061E081E00E9424026BE571E08CE193E0D8
:100D30000E94AA034091BA035091BB036091BC0387
:100D40007091BD0332C060E081E00E9424026BEB31
:100D500071E08CE193E00E94AA0361E081E00E94CF
:100D600024026CE571E08CE193E00E94AA0320E08C
:100D700030E040E251E46091B6037091B703809196
:100D8000B8039091B9030E94C91087FF06C064E6BA
:100D900071E08CE193E00E94AA034091B603509168
:100DA000B7036091B8037091B90322E030E08CE1A1
:100DB00093E00E94A80366E671E08CE193E00E9454
:100DC000AA0368E671E08FE792E00E94AA038CE133
:100DD00091E00E94550269E771E08FE792E00E947E
:100DE000AA03C090BF03D090C0030D2C000CEE08E6
:100DF000FF08F7FE0EC06DE28FE792E00E94390215
:100E000044275527BA014C195D096E097F092AE06C
:100E100003C02AE0B701A6018FE792E00E946802B2
:100E20006AE171E08FE792E00E94400263E971E0BD
:100E30008FE792E00E94AA038091BE03882319F0F5
:100E400081E491E002C086E491E00E94550266EAE6
:100E500071E08FE792E00E94AA036091BA0370915B
:100E6000BB038091BC039091BD030E94930368EB88
:100E700071E08FE792E00E94AA036091B60370913F
:100E8000B7038091B8039091B903E5C2811104C002
:100E90008091B503811118C380917D0290917E02EB
:100EA0008130910509F4AEC08230910509F457C133
:100EB000892B09F050C260E081E00E9424026BECB3
:100EC00071E08CE193E00E94AA0320E030E44CE161
:100ED00056E46091990370919A0380919B039091DD
:100EE0009C030E94C91087FF06C064E671E08CE194
:100EF00093E00E94AA0320E030E04AE754E46091C6
:100F0000990370919A0380919B0390919C030E9496
:100F1000C91087FF06C064E671E08CE193E00E948F
:100F2000AA0320E030E048EC52E46091990370910C
:100F30009A0380919B0390919C030E94C91087FFA4
:100F400006C064E671E08CE193E00E94AA0320E011
:100F500030E040E251E46091990370919A038091EE
:100F60009B0390919C030E94C91087FF06C064E612
:100F700071E08CE193E00E94AA03409199035091A3
:100F80009A0360919B0370919C0322E030E08CE116
:100F900093E00E94A80361ED71E08CE193E00E9470
:100FA000AA0361E081E00E94240264ED71E08CE11B
:100FB00093E00E94AA0320E030E040E251E4609117
:100FC00095037091960380919703909198030E94E6
:100FD000C91087FF06C064E671E08CE193E00E94CF
:100FE000AA034091950350919603609197037091E5
:100FF000980322E030E08CE193E00E94A8036EEDBC
:1010000071E0A5C160E081E00E94240260EE71E021
:101010008CE193E00E94AA0360919D0370919E036E
:1010200080919F039091A0030E9440116B017C016D
:10103000F694E794D794C79480E1C81687E2D8065F
:10104000E104F10458F564E671E08CE193E00E945C
:10105000AA0328EEC21623E0D206E104F104F0F45C
:1010600064E671E08CE193E00E94AA0384E6C8166E
:10107000D104E104F10490F464E671E08CE193E0C2
:101080000E94AA032AE0C216D104E104F10430F45C
:1010900064E671E08CE193E00E94AA0320E030E076
:1010A00040E05FE360919D0370919E0380919F03F8
:1010B0009091A0030E942612AB01BC0121E030E018
:1010C0008CE193E00E94A80367EE71E08CE193E06D
:1010D0000E94AA0361E081E00E9424026AEE71E0AE
:1010E0008CE193E00E94AA0320E030E048EC52E457
:1010F0006091910370919203809193039091940376
:101100000E94C91087FF06C064E671E08CE193E09D
:101110000E94AA0320E030E040E251E46091910394
:101120007091920380919303909194030E94C9104F
:1011300087FF06C064E671E08CE193E00E94AA0399
:1011400040919103509192036091930370919403A5
:1011500022E030E08CE193E00E94A803FCC060E054
:1011600081E00E94240264EF71E08CE193E00E9430
:10117000AA0320E030E040E05FE36091A9037091B2
:10118000AA038091AB039091AC030E9426120E94A7
:1011900040116B017C0180EAC81686E8D80681E020
:1011A000E806F104C0F564E671E08CE193E00E948A
:1011B000AA0320E1C21627E2D206E104F10458F5A1
:1011C00064E671E08CE193E00E94AA0388EEC81601
:1011D00083E0D806E104F104F0F464E671E08CE108
:1011E00093E00E94AA0324E6C216D104E104F104AC
:1011F00090F464E671E08CE193E00E94AA038AE037
:10120000C816D104E104F10430F464E671E08CE125
:1012100093E00E94AA0320E030E040E05FE36091A9
:10122000A9037091AA038091AB039091AC030E9433
:101230002612AB01BC0121E030E08CE193E00E947A
:10124000A80367EE71E08CE193E00E94AA0361E0DD
:1012500081E00E9424026AEF71E08CE193E00E9439
:10126000AA0320E030E040E05FE36091A1037091C9
:10127000A2038091A3039091A4030E9426120E94CE
:1012800040116B017C01603472448F40910508F07D
:1012900046C064E671E08CE193E00E94AA0380EA14
:1012A000C81686E8D80681E0E806F104C0F564E6D1
:1012B00071E08CE193E00E94AA0320E1C21627E2CC
:1012C000D206E104F10458F564E671E08CE193E0A4
:1012D0000E94AA0388EEC81683E0D806E104F10450
:1012E000F0F464E671E08CE193E00E94AA0324E646
:1012F000C216D104E104F10490F464E671E08CE1DB
:1013000093E00E94AA038AE0C816D104E104F10424
:1013100030F464E671E08CE193E00E94AA0320E0DF
:1013200030E040E05FE36091A1037091A2038091FF
:10133000A3039091A4030E942612AB01BC0121E0FB
:1013400030E08CE193E00E94A80367EE71E08CE14D
:1013500093E00E94AA036FEF71E08FE792E00E9492
:10136000AA038CE191E00E9455026DE072E08FE7E4
:1013700092E00E94AA0320E030E040E05FE3609149
:101380009D0370919E0380919F039091A0030E9402
:1013900026120E9493036CE172E08FE792E00E94B4
:1013A000AA0320E030E040E05FE36091A903709180
:1013B000AA038091AB039091AC030E942612AB016B
:1013C000BC0122E030E08FE792E00E94A80364E3D2
:1013D00072E08FE792E00E94AA0320E030E040E054
:1013E0005FE36091A1037091A2038091A3039091A8
:1013F000A4030E9426120E94930368E372E08FE721
:1014000092E00E94AA0360919503709196038091E7
:101410009703909198030E94930365E472E08FE72D
:1014200092E00E94AA0360919103709192038091CF
:101430009303909194030E94930364E672E08FE714
:1014400092E00E94AA036091990370919A0380919F
:101450009B0390919C030E94930380917C0260E027
:10146000882371F080E00E94240262E772E08CE140
:1014700093E00E94AA0384E792E00E94550209C00B
:1014800080E00E94240264E671E08CE193E00E9417
:10149000AA038CE191E00E9455022C960FB6F894B5
:1014A000DEBF0FBECDBFDF91CF911F910F91FF9097
:1014B000EF90DF90CF90BF90AF909F908F907F90F4
:1014C0006F905F904F9008958091B1039091B20317
:1014D000A091B303B091B4030091AD031091AE039A
:1014E0002091AF033091B003BC01CD01601B710BA3
:1014F000820B930B0E946F114B015C016093A90357
:101500007093AA038093AB039093AC038091A503DF
:101510009091A603A091A703B091A8030091B103F5
:101520001091B2032091B3033091B403BC01CD01FB
:10153000601B710B820B930B0E946F112B013C01FE
:101540006093A1037093A2038093A3039093A403D9
:101550009B01AC01C501B4010E945D106B017C01CF
:1015600060939D0370939E0380939F039093A003C9
:10157000C501B4010E94401169877A878B879C87D7
:10158000C301B2010E9440116D837E838F839887CF
:10159000C701B6010E94401169837A838B839C83C3
:1015A000A701960160E074E284E79BE40E94CE10FC
:1015B0006093990370939A0380939B0390939C0389
:1015C00020E030E048EC52E4C501B4010E9426124C
:1015D000A70196010E94CE10609395037093960325
:1015E000809397039093980320E030E04FE753E413
:1015F000C501B4010E942612A70196010E94CE10D7
:101600006093910370939203809393039093940358
:1016100043CC2FB7F8946091C6037091C7038091B3
:10162000C8039091C9032FBF08951F920F920FB660
:101630000F9211242F933F938F939F93AF93BF9358
:101640008091C6039091C703A091C803B091C903CC
:101650003091C50323E0230F2D3720F40196A11DFF
:10166000B11D05C026E8230F0296A11DB11D2093D0
:10167000C5038093C6039093C703A093C803B09398
:10168000C9038091C1039091C203A091C303B0919B
:10169000C4030196A11DB11D8093C1039093C203A1
:1016A000A093C303B093C403BF91AF919F918F9157
:1016B0003F912F910F900FBE0F901F901895CF92D2
:1016C000DF92EF92FF920F931F93CF93DF937C01F2
:1016D0006C0187E0C80ED11CC0E0D0E0062F10E0FE
:1016E000B8010C2E02C0759567950A94E2F76170F7
:1016F000F60181916F010E94FC042196C430D1054E
:1017000079F7C701DF91CF911F910F91FF90EF9073
:10171000DF90CF900C942C05CF92DF92EF92FF9246
:101720000F931F93CF93DF93EC01F62E642F8C81E0
:101730000E94FC048D818F3F19F060E00E94FC0440
:101740008F850F2D10E084FF25C06E0187E0C80E45
:10175000D11CE12CF12CB8010E2C02C075956795B7
:101760000A94E2F76170F60181916F010E94FC0416
:10177000FFEFEF1AFF0A88E0E816F10461F7CE01E7
:10178000DF91CF911F910F91FF90EF90DF90CF905D
:101790000C942C05B80184E0759567958A95E1F75E
:1017A000CE010E945F0B6F2DCE01DF91CF911F9173
:1017B0000F91FF90EF90DF90CF900C945F0B41E082
:1017C0000E948C0B81E090E0089540E00C948C0B1B
:1017D00061E00E94E50B8BE39FE10197F1F708952B
:1017E0001F920F920FB60F9211242F934F935F9376
:1017F0006F937F938F939F93AF93BF938091840058
:1018000090918500A0E0B0E08093890390938A03D3
:10181000A0938B03B0938C0380918D0390918E03E2
:10182000B09B0EC04091890350918A0360918B0355
:1018300070918C034F3F5F476105710508F455C0F7
:1018400090938C0380938B0380917C0281114FC015
:1018500080918F03813099F1E0F0823009F047C028
:101860008091890390918A03A0918B03B0918C039E
:101870008093A5039093A603A093A703B093A80316
:10188000109290031092010181E08093B503E898D3
:101890002EC08091890390918A03A0918B03B0910F
:1018A0008C038093AD039093AE03A093AF03B093EA
:1018B000B00381E080938F031092690018C04091BB
:1018C000890350918A0360918B0370918C0340933C
:1018D000B1035093B2036093B3037093B40392E0E7
:1018E00090938F038093690002C00196A9CFBF91A6
:1018F000AF919F918F917F916F915F914F912F91B8
:101900000F900FBE0F901F9018951F920F920FB659
:101910000F9211248F939F9380918D0390918E034A
:10192000019690938E0380938D039F918F910F90DA
:101930000FBE0F901F9018958F929F92AF92BF92FB
:10194000CF92DF92EF92FF92CF93DF93EFE7F2E037
:101950001382128288EE93E0A0E0B0E08483958346
:10196000A683B78386E091E09183808385EC90E045
:101970009587848784EC90E09787868780EC90E059
:10198000918B808B81EC90E0938B828B82EC90E04A
:10199000958B848B86EC90E0978B868B118E128EC4
:1019A000138E148EE3E8F3E0118210821382128208
:1019B00015821482CEE5D3E088818E7F888388816A
:1019C0008D7F888319861A861B861C861D821E823F
:1019D0001F82188619821A821B821C8218A21F8EEF
:1019E0001AA219A21CA21BA21D8A1E8A1F8A188E67
:1019F00080E9882E99249394A12CB12C89829A8213
:101A0000AB82BC8289819A81AB81BC818D839E83AC
:101A1000AF83B8870E94090B69877A878B879C8779
:101A2000CC24CA94DC2C7601CD86DE86EF86F88A3B
:101A3000C98ADA8AEB8AFC8A85E694E09A8F898FD4
:101A40001C8E1B8E1E8E1D8EC9E3D3E088818E7F77
:101A5000888388818D7F888319861A861B861C86D9
:101A60001D821E821F82188619821A821B821C8286
:101A700018A21F8E1AA219A21CA21BA21D8A1E8ABE
:101A80001F8A188E89829A82AB82BC8289819A8150
:101A9000AB81BC818D839E83AF83B8870E94090B85
:101AA00069877A878B879C87CD86DE86EF86F88A62
:101AB000C98ADA8AEB8AFC8A85E995E09A8F898F50
:101AC0001C8E1B8E1E8E1D8EECE1F3E013821282A3
:101AD00086E191E09183808388E084838FEF858322
:101AE00089E0868384E0878385E0808786E081873C
:101AF00087E082871386148615861686178661E02E
:101B0000CF01DF91CF91FF90EF90DF90CF90BF900A
:101B1000AF909F908F900C941B01CF93DF93CDB724
:101B2000DEB728970FB6F894DEBF0FBECDBF78940E
:101B300084B5826084BD84B5816084BD85B58260D2
:101B400085BD85B5816085BD80916E008160809383
:101B50006E001092810080918100826080938100EC
:101B600080918100816080938100809180008160FC
:101B7000809380008091B10084608093B100809157
:101B8000B00081608093B00080917A00846080937F
:101B90007A0080917A00826080937A0080917A0046
:101BA000816080937A0080917A00806880937A00C7
:101BB0001092C100E0918F02F091900282E0808348
:101BC000E0918B02F0918C021082E0918D02F091F5
:101BD0008E0280E1808310929702E0919302F0914F
:101BE000940286E08083E0919102F09192028081DC
:101BF00080618083E0919102F091920280818860FF
:101C00008083E0919102F0919202808180688083CC
:101C1000E0919102F091920280818F7D808362E059
:101C20008CE193E00E941B0161E08AE00E94420582
:101C300061E08AE00E94FC0460E082E00E944205CC
:101C400060E08FE00E94420561E08BE00E94420567
:101C50001092800081E08093810010926F00809349
:101C60006F0043E853E0109288031092870329E342
:101C700033E050935D0340935C03309384032093DF
:101C8000830310925903109258038EE593E050930A
:101C900082034093810330937E0320937D039093CE
:101CA0005B0380935A031092800310927F039093FA
:101CB0008603809385037901E114F10409F44CC093
:101CC000F701A3A1B4A1109709F440C0158A168AA0
:101CD000178A108E238D348D2115310509F4BFC16B
:101CE000808181FDBCC114960D911C9115971596AC
:101CF000FC92EE921497808182608083F9010995AD
:101D0000D7019C9180FB90F99C938C918D7F8C9353
:101D10009396ED91FC919497158304830E94090B8F
:101D2000D70111960D911D912D913C911497F701BA
:101D30000583168327833087DC01CB01801B910B41
:101D4000A20BB30B81879287A387B487D7019196A3
:101D5000ED90FC909297B0CF8091B1008760809316
:101D6000B1008091000190E00E94C10094E6C92E6C
:101D7000D12CE12CF12C2AE0822E912CA12CB12C1B
:101D80003324339480918303909184039093880348
:101D900080938703609087037090880361147104B7
:101DA00009F4A5C0F301808180FF9AC085859685DE
:101DB000A785B089892B8A2B8B2B11F59081808187
:101DC0008E7F808380818D7F808390FF89C0858D09
:101DD000968D009709F484C0A3A1B4A114960D9127
:101DE0001C91159715967C926E921497FC0109959B
:101DF000D3019396ED91FC9194971583048370C061
:101E00000E94090B0091870310918803D801119655
:101E10004D905D906D907C9014974D825E826F82A4
:101E2000788619964D905D906D907C901C974982B4
:101E30005A826B827C8215964D905D906D907C905D
:101E40001897DC01CB0129813A814B815C81821B8F
:101E5000930BA40BB50B84159505A605B70508F4DF
:101E60003FC0F80185859685A785B08918161906A3
:101E70001A061B065CF485859685A785B0890197AF
:101E8000A109B10985879687A787B08BF801858955
:101E90009689A789B08D0196A11DB11D858B968B62
:101EA000A78BB08F85819681A781B08541855285AA
:101EB00063857485840F951FA61FB71F818792873E
:101EC000A387B4874D805E806F8078844582568278
:101ED00067827086018CF28DE02D309709F00995AC
:101EE000E0918703F091880381A192A14FCF80E018
:101EF0000E947E058032B3E09B070CF0A3C02091C6
:101F0000380321116AC08C3391053CF480910001A3
:101F10008F3F09F442C08F5F34C0883C91058CF438
:101F200080917D0290917E02019683309105A4F00C
:101F300010927E0210927D028CE193E00E94E80BE9
:101F40002CC08039E1E09E07A4F480917D0290913D
:101F50007E02019797FD05C090937E0280937D02DB
:101F6000EBCF82E0482E512C50927E0240927D02AF
:101F7000E3CF8835924044F480910001882369F0D2
:101F800081508093000109C080917C02882319F060
:101F900010927C0202C030927C028091000190E09D
:101FA0000E94C1000E9495058091340390913503F1
:101FB000A0913603B0913703892B8A2B8B2B51F4D8
:101FC0000E94090B609334037093350380933603AA
:101FD00090933703309238033FC00E94090B009161
:101FE00034031091350320913603309137032B01D0
:101FF0003C01401A510A620A730A3DE2431631E07D
:1020000053066104710440F1C301B201A7019601B6
:102010000E943410672B682B692B11F4109238033F
:1020200045EC441649E0540661047104A8F0C3016C
:10203000B201A50194010E943410672B682B692B13
:1020400059F408C0109234031092350310923603ED
:1020500010923703109238030E94320493CEF70196
:102060008081816080835ACEA1E21A2EAA1BBB1BFD
:10207000FD010DC0AA1FBB1FEE1FFF1FA217B30754
:10208000E407F50720F0A21BB30BE40BF50B661F6A
:10209000771F881F991F1A9469F76095709580952E
:1020A00090959B01AC01BD01CF010895EE0FFF1F7C
:1020B0000590F491E02D09945058BB27AA270E945F
:1020C00074100C94E7110E94D91138F00E94E011AD
:1020D00020F039F49F3F19F426F40C94D6110EF435
:1020E000E095E7FB0C94D011E92F0E94F81158F30A
:1020F000BA17620773078407950720F079F4A6F5ED
:102100000C941A120EF4E0950B2EBA2FA02D0B0191
:10211000B90190010C01CA01A0011124FF27591B2C
:1021200099F0593F50F4503E68F11A16F040A22F32
:10213000232F342F4427585FF3CF469537952795A3
:10214000A795F0405395C9F77EF41F16BA0B620BA2
:10215000730B840BBAF09150A1F0FF0FBB1F661FE9
:10216000771F881FC2F70EC0BA0F621F731F841F2C
:1021700048F4879577956795B795F7959E3F08F052
:10218000B0CF9395880F08F09927EE0F9795879514
:1021900008950E94AC1108F481E008950E94E210B5
:1021A0000C94E7110E94E01158F00E94D91140F000
:1021B00029F45F3F29F00C94D01151110C941B129B
:1021C0000C94D6110E94F81168F39923B1F35523AA
:1021D00091F3951B550BBB27AA276217730784073A
:1021E00038F09F5F5F4F220F331F441FAA1FA9F3D0
:1021F00035D00E2E3AF0E0E832D091505040E695BE
:10220000001CCAF72BD0FE2F29D0660F771F881F1E
:10221000BB1F261737074807AB07B0E809F0BB0B11
:10222000802DBF01FF2793585F4F3AF09E3F510525
:1022300078F00C94D0110C941B125F3FE4F3983E9D
:10224000D4F3869577956795B795F7959F5FC9F70E
:10225000880F911D9695879597F90895E1E0660F8F
:10226000771F881FBB1F621773078407BA0720F008
:10227000621B730B840BBA0BEE1F88F7E095089571
:102280000E94001288F09F5798F0B92F9927B751F4
:10229000B0F0E1F0660F771F881F991F1AF0BA950A
:1022A000C9F714C0B13091F00E941A12B1E008953C
:1022B0000C941A12672F782F8827B85F39F0B93F2E
:1022C000CCF3869577956795B395D9F73EF49095BD
:1022D0008095709561957F4F8F4F9F4F0895E8943B
:1022E00009C097FB3EF490958095709561957F4F5E
:1022F0008F4F9F4F9923A9F0F92F96E9BB2793950C
:10230000F695879577956795B795F111F8CFFAF41B
:10231000BB0F11F460FF1BC06F5F7F4F8F4F9F4F4C
:1023200016C0882311F096E911C0772321F09EE8AA
:10233000872F762F05C0662371F096E8862F70E010
:1023400060E02AF09A95660F771F881FDAF7880FEA
:102350009695879597F90895990F0008550FAA0B40
:10236000E0E8FEEF16161706E807F907C0F01216A8
:102370001306E407F50798F0621B730B840B950BAB
:1023800039F40A2661F0232B242B252B21F4089500
:102390000A2609F4A140A6958FEF811D811D08959D
:1023A00097F99F6780E870E060E008959FEF80EC08
:1023B000089500240A9416161706180609060895AB
:1023C00000240A9412161306140605060895092E11
:1023D0000394000C11F4882352F0BB0F40F4BF2B80
:1023E00011F460FF04C06F5F7F4F8F4F9F4F0895C0
:1023F00057FD9058440F551F59F05F3F71F04795B6
:10240000880F97FB991F61F09F3F79F0879508959A
:10241000121613061406551FF2CF4695F1DF08C0B9
:10242000161617061806991FF1CF869571056105D6
:1024300008940895E894BB2766277727CB0197F97E
:1024400008950E94AC1108F48FEF08950E9439128C
:102450000C94E7110E94D91138F00E94E01120F08D
:10246000952311F00C94D0110C94D61111240C94D6
:102470001B120E94F81170F3959FC1F3950F50E065
:10248000551F629FF001729FBB27F00DB11D639F26
:10249000AA27F00DB11DAA1F649F6627B00DA11DCC
:1024A000661F829F2227B00DA11D621F739FB00D72
:1024B000A11D621F839FA00D611D221F749F3327E2
:1024C000A00D611D231F849F600D211D822F762F7B
:1024D0006A2F11249F5750409AF0F1F088234AF058
:1024E000EE0FFF1FBB1F661F771F881F91505040C4
:1024F000A9F79E3F510580F00C94D0110C941B124B
:102500005F3FE4F3983ED4F3869577956795B7954A
:10251000F795E7959F5FC1F7FE2B880F911D969564
:10252000879597F908950E94AC11880B990B08952F
:0E25300081E090E0F8940C949D12F894FFCF97
:10253E007F0100000000BB018C0026040404180477
:10254E00020200000000DF0B8C000D0A006E616EAF
:10255E0000696E66006F766600416E616C6F672073
:10256E0076616C3A004469676974616C3A20202088
:10257E00004849474800204C4F5700466F7220359F
:10258E0056207363616C653A2020002020202020A5
:10259E002020202020005600414E414C4F4720491C
:1025AE004E53504543544F5200202D20416E616CC6
:1025BE006F672076616C75655B302D313032335D1F
:1025CE003A2000202D204469676974616C20766181
:1025DE006C75653A2000202D20466F7220355620EE
:1025EE007363616C653A2000202D20466F72203196
:1025FE003456207363616C653A2000467265713AF9
:10260E0000487A00447574793A2020202000250075
:10261E0050756C73653A0075730050574D20766196
:10262E006C3A2000486967683A004C6F773A005060
:10263E00574D20494E53504543544F5200202D20A4
:10264E0050756C73655B6D735D3A2000202D2054C0
:10265E00696D6520484947482F4C4F57205B6D7375
:10266E005D3A2000202F2000202D20447574795BC8
:10267E00255D3A2000202D2043616C63756C6174DA
:10268E0065642050574D20627974652076616C75B3
:10269E00653A2000202D20467265715B6B487A5D8D
:0C26AE003A002A005041555345440000FA
:00000001FF
